:020000040800F2
:1000000000500020596400088D5B00088F5B0008D9
:10001000915B0008935B0008955B000800000000FE
:10002000000000000000000000000000975B0008D6
:10003000995B0008000000009B5B00089D5B0008C6
:10004000A1640008A1640008A1640008A16400087C
:10005000A1640008A1640008A1640008A16400086C
:10006000A1640008A1640008A1640008A55B000861
:10007000A1640008A1640008A1640008A16400084C
:10008000A1640008A1640008A1640008A16400083C
:10009000B55B0008A1640008A1640008A164000821
:1000A000A1640008A1640008A1640008A16400081C
:1000B000A1640008C55B0008D55B0008A1640008C6
:1000C000A1640008A1640008A1640008A1640008FC
:1000D000A1640008A1640008A1640008A1640008EC
:1000E000E55B0008A1640008A164000800000000AE
:1000F0000000000000000000000000000000000000
:0C01000000000000000000005FF808F1A3
:10010C0010B5054C237833B9044B13B10448AFF345
:10011C0000800123237010BD580200200000000055
:10012C00FC64000808B5034B1BB103490348AFF34B
:10013C00008008BD000000005C020020FC64000888
:10014C0010B504460E4B18784FF47A73B3FBF0F3EA
:10015C000C4A1068B0FBF3F000F058FC68B90F2C97
:10016C0001D901200AE0002221464FF0FF3000F0B7
:10017C00EFFB034B5C60002000E0012010BD00BFD2
:10018C0000000020E001002008B5074A136843F086
:10019C0010031360032000F0BDFB0020FFF7D0FF1D
:1001AC0005F0CCFC002008BD00200240034A116879
:1001BC00034B1B780B441360704700BF44060020B0
:1001CC0000000020014B1868704700BF4406002057
:1001DC0038B50446FFF7F6FF0546B4F1FF3F02D0F1
:1001EC00044B1B781C44FFF7EDFF401BA042FAD3D5
:1001FC0038BD00BF0000002008B5436A9A6A12F0AF
:10020C00500F03D01B6A1B6B984708BD9A6A42F4C7
:10021C0000729A621A68926802F46022B2F5602F3A
:10022C0003D0184605F00CFDEFE71A7B002AF8D135
:10023C009A6A22F480729A629A6A12F4805FF0D100
:10024C009A6A42F001029A62EBE7704708B5406A7D
:10025C00FFF7FBFF08BD704708B5406A836A43F09F
:10026C0040038362C36A43F00403C362FFF7F3FFE6
:10027C0008BD000030B583B005460C460023019341
:10028C0003685C4A934208D002F58062934204D022
:10029C0040F2CE71584805F0F1FB2368112B3AD887
:1002AC006368013B0F2B3CD8A368072B3FD895F80C
:1002BC002430012B00F09B80012385F824306368E7
:1002CC00062B3AD82868426B03EB8303053B1F21AE
:1002DC00994022EA0102216801FA03F313434363B4
:1002EC002368092B49D92868C26803EB43031E3BDA
:1002FC000721994022EA0102A16801FA03F3134392
:10030C00C3602368103B012B45D90020002385F8DE
:10031C00243003B030BD40F2CF71374805F0AEFB4E
:10032C00BEE74FF4FA61344805F0A8FBBCE740F295
:10033C00D171314805F0A2FBB9E70C2B0ED8286817
:10034C00026B03EB8303233B1F21994022EA01023A
:10035C00216801FA03F313430363C1E72868C26AF7
:10036C0003EB8303413B1F21994022EA01022168E0
:10037C0001FA03F31343C362B2E72868026903EB83
:10038C0043030721994022EA0102A16801FA03F311
:10039C0013430361B5E72B68164A934205D0AB6A49
:1003AC0043F02003AB620120B0E79A6812F4000F0F
:1003BC001BD19A6842F400029A602368102B01D07A
:1003CC000020A3E70D4B1B680D4AA2FB03239B0CDB
:1003DC0003EB83035A00019202E0019B013B019362
:1003EC00019B002BF9D1002090E700208EE7022022
:1003FC008FE700BF0024014054650008E001002095
:10040C0083DE1B4330B583B00023019303689A68E5
:10041C0012F0010F2ED19A6842F001029A60174B2C
:10042C001B68174AA2FB03239B0C019302E0019B60
:10043C00013B0193019B002BF9D10446FFF7C2FE4F
:10044C00054623689B6813F0010F11D1FFF7BAFE24
:10045C00401B0228F5D9A36A43F01003A362E36A98
:10046C0043F00103E362002384F82430012002E00E
:10047C00002000E0002003B030BD00BFE0010020F0
:10048C0083DE1B43F8B504460D4616460268494BFD
:10049C009A4204D040F21461474805F0EFFA236801
:1004AC00444A93425AD002F58062934256D094F853
:1004BC002430012B7CD0012384F824302046FFF714
:1004CC00A1FF074600286ED1A36A23F4706323F0C2
:1004DC00010343F48073A3622268384B9A4244D0E0
:1004EC00A36A23F48013A362536813F4806F05D0BE
:1004FC00A36A23F4405343F48053A362A36A13F416
:10050C00805F48D0E36A23F00603E362002384F89B
:10051C002430236A2A4A9A62236A2A4ADA62236AB4
:10052C00294A1A6323686FF002021A6022689368E2
:10053C0043F480739360216833462A464C31206A19
:10054C0000F038FB2268936803F46023B3F5602F46
:10055C0024D0936843F48013936027E0154B5B68B9
:10056C0013F4702FA3D0012720E0A3F580635B6800
:10057C0013F4702FB4D0A36A43F48013A3620D4B11
:10058C005B6813F4806FB9D0A36A23F4405343F42F
:10059C008053A362B2E70023E362B7E7936843F4A6
:1005AC00A003936002E0002384F824303846F8BDA1
:1005BC000227FBE700240140546500080028014095
:1005CC0005020008590200086502000838B50368E6
:1005DC009A6812F0010F01D1002038BD04469A68C8
:1005EC0022F001029A60FFF7EDFD054623689B6837
:1005FC0013F0010F0ED0FFF7E5FD401B0228F5D9D3
:10060C00A36A43F01003A362E36A43F00103E362BD
:10061C000120E2E70020E0E7002800F0EA8038B58E
:10062C0004460368744A934208D002F580629342F0
:10063C0004D040F2B311714805F020FA636813B18D
:10064C00B3F5006F63D1A36813B1B3F5807F64D1A8
:10065C00237B012B67D8E3698BB1B3F5003F0ED038
:10066C00B3F5C02F0BD0B3F5002F08D0B3F5202F66
:10067C0005D0B3F5402F02D0B3F5602F59D1A36844
:10068C0063B12369013B0F2B59D8237D012B5CD817
:10069C00237D1BB1A369013B072B5CD8A36A002BFC
:1006AC005FD02046FFF792FFA36A13F0100340F0CF
:1006BC009A80002840F09780A26A22F4885222F097
:1006CC00020242F00202A2626268E1690A43257BDF
:1006DC0042EA4502A168B1F5807F4CD0012947D090
:1006EC00217D01294AD02568696821F469410B43B1
:1006FC006B6021688D68424B2B4013438B60A36861
:10070C00B3F5807F4BD0012B49D000214AE04FF448
:10071C00DA713A4805F0B2F995E740F2B51137486D
:10072C0005F0ACF994E74FF4DB71344805F0A6F909
:10073C0091E740F2B711314805F0A0F99FE740F27C
:10074C00BB112E4805F09AF99FE74FF4DE712B4848
:10075C0005F094F99CE740F2BF11284805F08EF99A
:10076C009CE7E36284F82430204604F0A1FB98E770
:10077C004FF48073B4E74FF48073B1E735B9A169D6
:10078C00013943EA413343F40063ACE7A16A41F019
:10079C002001A162E16A41F00101E162A3E7236952
:1007AC00013B19052568EB6A23F470030B43EB62DC
:1007BC0023689968134B0B409A420BD0A36A23F021
:1007CC00120343F01003A362E36A43F00103E362F4
:1007DC0001200DE00023E362A36A23F0030343F03E
:1007EC000103A36204E0A36A43F01003A362012097
:1007FC0038BD0120704700BF00240140546500083B
:10080C00FDF7E1FFFE0E1FFF70B582B0044600231A
:10081C00019303683C4A934207D002F580629342ED
:10082C0003D08521394805F029F994F82430012B9F
:10083C0068D0012384F824302046FFF7C7FE054614
:10084C0028B1002384F82430284602B070BDA36A76
:10085C0023F4885323F0020343F00203A3622C4BCE
:10086C001E68022001F0ACFDB6FBF0F040000190D8
:10087C0002E0019B013B0193019B002BF9D1204627
:10088C00FFF7C0FD2268936843F008039360FFF7FD
:10089C0099FC064623689A6812F0080F0FD0FFF7F0
:1008AC0091FC801B0A28F5D9A36A23F0120343F0AC
:1008BC001003A362002384F824300125C4E79A684E
:1008CC0042F004029A60FFF77DFC064623689B68A1
:1008DC0013F0040F0FD0FFF775FC801B0A28F5D915
:1008EC00A36A23F0120343F01003A362002384F8DD
:1008FC0024300125A8E7A36A23F0030343F0010386
:10090C00A3629EE702259FE7002401408C65000846
:10091C00E001002010B50446C31E042B0FD80A4A70
:10092C00D36823F4E0631B041B0C240204F4E0647E
:10093C00234343F0BF6343F40033D36010BD9221D3
:10094C00024805F09BF8EAE700ED00E0C8650008F6
:10095C0070B505460C4616460F2A25D80F2C28D8FC
:10096C001B4BDB68C3F30223C3F10702042A28BF25
:10097C000422191D062921D9033B4FF0FF3101FA3E
:10098C0002F224EA02049C4001FA03F326EA03066D
:10099C003443002D14DB2401E4B205F1604505F568
:1009AC00614585F8004370BDAA210A4805F066F838
:1009BC00D4E7AB21074805F061F8D1E70023DCE769
:1009CC0005F00F052401E4B2034B5C55EBE700BFC7
:1009DC0000ED00E0C865000814ED00E010B5041E41
:1009EC000ADB002C07DB04F01F026409012393408F
:1009FC00044A42F8243010BDBE21034805F03EF8ED
:100A0C00EFE700BF00E100E0C86500080138B0F175
:100A1C00807F0AD2064B5860064AF02182F82310D8
:100A2C000020986007221A6070470120704700BFB1
:100A3C0010E000E000ED00E070B4066CC56B012422
:100A4C00B4406C60046863604368102B05D0036885
:100A5C0099600368DA6070BC704703689A60036839
:100A6C00D960F8E7002800F0998010B504460368B7
:100A7C004B4A934215D01432934212D01432934203
:100A8C000FD0143293420CD01432934209D014324A
:100A9C00934206D01432934203D09A21414804F079
:100AAC00EDFF636823B1102B02D0B3F5804F52D108
:100ABC00A368402B01D0002B52D1E368802B01D0CE
:100ACC00002B52D123692BB1B3F5807F02D0B3F543
:100ADC00007F4FD163692BB1B3F5806F02D0B3F5B2
:100AEC00006F4CD1A3690BB1202B4DD1E36943B1FD
:100AFC00B3F5805F05D0B3F5005F02D0B3F5405F6E
:100B0C0047D12268284B13442849A1FB03131B0926
:100B1C009B002364264BE363022384F82130116885
:100B2C0021F47F5121F030016368A0680343E06831
:100B3C0003432069034360690343A0690343E069ED
:100B4C0003430B4313600020A063012384F821307E
:100B5C0084F8200010BD9B21124804F08FFFA7E7FA
:100B6C009C21104804F08AFFA7E79D210D4804F052
:100B7C0085FFA7E79E210B4804F080FFAAE79F2181
:100B8C00084804F07BFFADE7A021064804F076FF8F
:100B9C00ACE7A121034804F071FFB2E701207047D4
:100BAC000800024004660008F8FFFDBFCDCCCCCC99
:100BBC0000000240F8B504460E4617461D465A1E64
:100BCC004FF6FE739A420FD894F82030012B3AD08E
:100BDC00012384F8203094F82130012B0AD0002313
:100BEC0084F820300220F8BD40F26F11174804F051
:100BFC0045FFE9E7022384F821300023A363226830
:100C0C00136823F0010313602B463A463146204605
:100C1C00FFF712FFE36A5BB12268136843F00E031F
:100C2C0013602268136843F0010313600020DAE7B5
:100C3C002268136823F0040313602268136843F0DE
:100C4C000A031360EDE70220CDE700BF046600083D
:100C5C0038B5C36B1A6804682568016C04238B4093
:100C6C00134235D015F0040F32D0236813F0200F47
:100C7C0003D1236823F0040323600368434A93429F
:100C8C0014D01432934218D01432934217D0143229
:100C9C00934217D01432934217D01432934202D09D
:100CAC004FF0806203E04FF4800200E00422384BE6
:100CBC005A60C36A03B1984738BD4022F7E74FF436
:100CCC008062F4E74FF48042F1E74FF48022EEE7C4
:100CDC0002238B4013423CD015F0020F39D023680D
:100CEC0013F0200F06D1236823F00A03236001239D
:100CFC0080F821300368254A934214D01432934271
:100D0C001CD0143293421BD0143293421BD0143299
:100D1C0093421BD01432934202D04FF0007203E086
:100D2C004FF4001200E00222194B5A60002380F8A5
:100D3C002030836A002BBFD09847BDE72022F3E711
:100D4C004FF40072F0E74FF40052EDE74FF400322D
:100D5C00EAE7082303FA01F11142ADD015F0080FB0
:100D6C00AAD0236823F00E032360026CC16B01230D
:100D7C0003FA02F24A60836380F82130002380F882
:100D8C002030036B002B97D0984795E70800024062
:100D9C00000002402DE9F04383B080460F46B64B6D
:100DAC00984213D003F5806398420FD003F580630B
:100DBC0098420BD003F58063984207D003F580630B
:100DCC00984203D0BD21AD4804F058FE3B689AB25E
:100DDC0012B11B0C1B041BB1BE21A84804F04EFE23
:100DEC007B68012B1ED9112B1CD0022B1AD0122B75
:100DFC0018D0A34A934215D002F58012934211D019
:100E0C0002F5801293420DD0A2F5F812934209D04C
:100E1C0002F58012934205D002F58012934201D064
:100E2C00032B03D14FF000094D46D7E0BF21934867
:100E3C0004F024FEF6E7002B5ED0012B05D1FB68F5
:100E4C00013B022B65D8D7F80C90FF2C00F2958053
:100E5C004046FF2C00F29480AA0003680F219140B9
:100E6C0023EA010309FA02F2134303607B6813F0CF
:100E7C00805F00F0B280834B9A6942F001029A6164
:100E8C009B6903F001030193019BAA08911C7E4B03
:100E9C0053F8210005F0030399000F238B4020EA3F
:100EAC000300754B984571D003F58063984500F0AD
:100EBC00CD8003F58063984500F0CA8003F580630C
:100ECC00984561D0042362E0704A934214D00BD948
:100EDC006F4A934210D002F5803293420CD0A2F5A7
:100EEC0080129342B1D107E0A2F58012934203D055
:100EFC0002F580329342A8D1BB68022B2DD8BB6877
:100F0C00002B37D0012B2DD0C8F814604FF00809F6
:100F1C009BE7D521594804F0B1FD94E7DC215748F3
:100F2C0004F0ACFD8EE0FB68013B022B03D8FB68A0
:100F3C0003F1080989E7E321504804F09FFDF6E727
:100F4C00FB68013B022B03D8FB6803F10C097CE71F
:100F5C00EA214A4804F092FDF6E7F721474804F0ED
:100F6C008DFDCCE7C8F810604FF008096DE74FF025
:100F7C0000096AE74FF0040967E708F1040068E725
:100F8C00A5F10802920068E7032300E000238B40E0
:100F9C00034302323C4941F822307B6813F4803F12
:100FAC0058D03C4A1368234313607B6813F4003F0A
:100FBC0056D0384A5368234353607B6813F4801F20
:100FCC0054D0344A9368234393607B6813F4001F16
:100FDC0062D0304AD3681C43D46001353C6834FA83
:100FEC0005F35FD00126AE403440A642F5D1224B2A
:100FFC00984513D003F5806398450FD003F58063B3
:10100C0098450BD003F58063984507D003F58063B2
:10101C00984503D0CD21194804F030FD7B68122B84
:10102C008ED03FF651AF022B3FF47DAF7FF603AF6E
:10103C00032B9CD0112B7FF408AFFB68013B022BD8
:10104C003FF66CAFFB6803F10409FEE601239EE753
:10105C0002239CE70F4A136823EA04031360A4E7F6
:10106C000C4A536823EA04035360A6E7094A9368C1
:10107C0023EA04039360A8E7000801403C660008DB
:10108C00000011100010024000000140000021106F
:10109C000000311000040140044AD36823EA040420
:1010AC00D4609AE703B0BDE8F08300BF00040140B0
:1010BC0038B505460C4621B1AB681C4207D100205F
:1010CC0038BD4FF4DA71034804F0D8FCF4E7012082
:1010DC00F6E700BF3C66000870B5064615460C46A0
:1010EC0029B1012D09D875B92404346170BD4FF4B0
:1010FC00EA71064804F0C2FCF3E740F2D51103484C
:10110C0004F0BCFCEFE73461F0E700BF3C6600087C
:10111C0008B5054B5B69034200D108BD024B586111
:10112C0004F0E2FDF9E700BF00040140F0B587B020
:10113C0000287CD0044602683E4B9A4203D08C2196
:10114C003D4804F09BFC94F82932D3B1032384F876
:10115C002932206802F051FA254655F8107B6E466C
:10116C000FCD0FC62B683360231D0ECB384602F013
:10117C0035FA60B1022384F829320125284607B0DC
:10118C00F0BD84F82832204604F026FFDEE700216B
:10119C00206802F03CFA002311E004EB4312012119
:1011AC0082F8291082F82830D386002182F82B107F
:1011BC009163D1639A1C5201A1500133DBB2606878
:1011CC008342EAD3002312E004EB4311002281F89E
:1011DC00292181F8283181F82B21C1F83821C1F857
:1011EC003C2103F10A01490162500133DBB2984200
:1011FC00EAD8254655F8107B6E460FCD0FC62B68E6
:10120C003360231D0ECB384602F003FA054620B19D
:10121C00022384F829320125B0E7002384F8243016
:10122C00012384F82932206802F030FDA6E701255D
:10123C00A4E700BF005C00407866000890F82832F4
:10124C00012B10D010B50446012180F8281204F0AF
:10125C00C8FF206802F018FD206802F0C6F90020D3
:10126C0084F8280210BD0220704738B590F8283257
:10127C00012B18D00446012380F82832006802F0B4
:10128C00BCF9206802F0EFFC054628B1002384F875
:10129C0028320125284638BD206802F0F7FC0023CF
:1012AC0084F82832F6E70225F4E790F82832012B6F
:1012BC000DD010B50446012380F8283280F8241094
:1012CC00006802F0DBFC002084F8280210BD02202C
:1012DC00704770B511F0800F23D101F007056D0137
:1012EC0005F5947404440544002685F8296101F041
:1012FC00070121702261E370627802B1E181022B57
:10130C001AD090F82832012B19D00546012380F809
:10131C0028322146006802F092F9002085F8280254
:10132C0070BD01F007056D0105F128040444054466
:10133C00012685F82960DAE700232371E1E7022012
:10134C00EEE710B511F0800F1CD101F007035B0123
:10135C0003F5947202440344002483F8294101F0FC
:10136C000703137090F82832012B16D00446012382
:10137C0080F828321146006802F015FB002084F832
:10138C00280210BD01F007035B0103F1280202449F
:10139C000344012483F82940E1E70220F1E770B50A
:1013AC0001F007056C0104F5947101440444C4F880
:1013BC003C2105F10A025201861883500023736008
:1013CC0084F8293184F8285125B1006802F07AFCA0
:1013DC00002070BD006802F075FCF9E770B501F0F3
:1013EC0007056C0104F1280101440444E263AA1CC2
:1013FC0052018618835000237360012384F829302E
:10140C0084F8285025B1006802F05CFC002070BD07
:10141C00006802F057FCF9E7F8B504462068B0F80C
:10142C00443013F4004F00F0AD81B0F844309BB25F
:10143C0013F00F0540F0CD8013F0100F58D0038837
:10144C009BB213F4006F40F0898013F4004FE5D089
:10145C00038823F070031B051B0D43F080030380EE
:10146C002068B0F8503094F8282103EBC2030633FF
:10147C0000EB4303B3F80034C3F30903C4F844315D
:10148C008BB1D4F83C1171B1B4F82E2102F0AAFD45
:10149C00D4F84421D4F83C311344C4F83C31002135
:1014AC00204604F0C1FD2368B3F850201344D4F84F
:1014BC003821002A74D1B3F80C2492B222F4F842E9
:1014CC0092B2A3F80C24B3F80C2442F40042A3F813
:1014DC000C24226813889BB223F4804323F07003FE
:1014EC0083F4405343F4004343F08003138095E7A7
:1014FC0003889BB223F4E14323F070036FEA434368
:10150C006FEA53439BB203802268B2F8503094F8D0
:10151C00281003EBC103023302EB4303B3F800348E
:10152C00C3F309036364E26B1344E36300212046B5
:10153C0004F084FD94F82430002B3FF46FAF236C3F
:10154C00002B7FF46BAF94F82430226843F08003B7
:10155C00A2F84C30002384F824305FE7B0F8503008
:10156C0094F8282103EBC203063300EB4303B3F8D2
:10157C000034C3F30903C4F84431B4F82E2104F544
:10158C000C7102F02FFD2268138823F070031B05E9
:10159C001B0D43F080031380204604F03DFD3DE716
:1015AC003E2A09D8510812F0010F00D001318902EE
:1015BC0089B2A3F80C148CE7510912F01F0F00D15B
:1015CC0001396FEAC1626FEA524292B2A3F80C245D
:1015DC007FE730F82560B6B216F4004F33D116F021
:1015EC00800F3FF41BAF226832F825309BB223F4F6
:1015FC00E14323F070036FEA43436FEA53439BB21A
:10160C0022F825302268B2F8503004EB451090F8DF
:10161C00281003EBC103023302EB4303B3F800249D
:10162C00C2F30902AB1C5B01E1184A60C16B0A44AE
:10163C00C263E358002B40F09D8090F828102046A0
:10164C0004F0FCFCEAE630F8253023F070031B05AF
:10165C001B0D43F0800320F8253004EB451393F861
:10166C003431D3B92068B0F8503004EB451292F8FD
:10167C00282103EBC203063300EB4303B3F80074D9
:10168C00C7F309078FB304EB45113B46B1F82E2184
:10169C00D1F83C1102F0A6FC27E0206804EB4513BE
:1016AC0093F8282130F8223013F4804F43D0B0F84F
:1016BC00503003EBC203023300EB4303B3F8007466
:1016CC00C7F309076FBB226804EB451393F8281185
:1016DC0032F821309BB223F4E04323F0700343F43F
:1016EC00004343F0C00322F8213005F10A035B01EB
:1016FC00E1184A683A444A6004EB4511D1F83C21A0
:10170C003A44C1F83C21E3581BB1D1F838118F424F
:10171C0028D204EB451393F82811204604F084FCDE
:10172C005DE704EB45113B46B1F83021D1F83C1193
:10173C0002F058FCC7E7B0F8503003EBC203063395
:10174C0000EB4303B3F80074C7F30907002FBAD0BA
:10175C0004EB45113B46B1F83221D1F83C1102F0B3
:10176C0041FCB0E704EB451191F828112046FFF736
:10177C0016FE34E704EB451595F828102046FFF7C4
:10178C002DFE4BE60020F8BD10B50446006802F0B3
:10179C007FFA10F4004F45D1206802F079FA10F46A
:1017AC00806F43D1206802F073FA10F4804F08D098
:1017BC002268B2F844309BB223F480439BB2A2F867
:1017CC004430206802F064FA10F4005F08D02268FC
:1017DC00B2F844309BB223F400539BB2A2F84430CD
:1017EC00206802F055FA10F4805F30D1206802F0C6
:1017FC004FFA10F4006F49D1206802F049FA10F446
:10180C00007F6DD1206802F043FA10F4807F08D07D
:10181C002268B2F844309BB223F480739BB2A2F8D6
:10182C00443010BD2046FFF7F7FDB5E72268B2F84B
:10183C0044309BB223F480639BB2A2F84430204620
:10184C0004F00BFC00212046FFF72FFDAAE72268CD
:10185C00B2F840309BB223F004039BB2A2F84030A4
:10186C002268B2F840309BB223F008039BB2A2F876
:10187C004030204604F012FC2268B2F844309BB28F
:10188C0023F480539BB2A2F84430AFE72268B2F83D
:10189C00403043F00803A2F840302268B2F84430DC
:1018AC009BB223F400639BB2A2F844302268B2F8D6
:1018BC00403043F00403A2F84030206802F0E8F90D
:1018CC0010F4805F08D02268B2F844309BB223F445
:1018DC0080539BB2A2F84430204604F0CFFB8BE738
:1018EC002268B2F844309BB223F400739BB2A2F886
:1018FC004430204604F0ABFB84E738B501F0070513
:10190C0043689D422CD811F0800F1AD14B0103F57E
:10191C00947101440344002283F8292101238B7024
:10192C000D7090F82832012B1CD00446012380F84E
:10193C002832006802F021F965B1002084F82802F1
:10194C000FE06B0103F1280101440344012283F8E9
:10195C002920E3E704F50C71206802F09CF9ECE710
:10196C00012038BD0220FCE701F00F0243689A42C7
:10197C002DD810B511F0800F1ED101F007035B01BB
:10198C0003F5947202440344002483F82941002394
:10199C00937001F00703137090F82832012B18D0C4
:1019AC000446012380F828321146006802F00AF937
:1019BC00002084F8280210BD01F007035B0103F13D
:1019CC00280202440344012483F82940DFE7012064
:1019DC0070470220EFE711F0800F0CD001F00701E7
:1019EC004901283101445AB101220A730B811B0CA5
:1019FC004B8100207047490101F594710144F2E7D5
:101A0C000A73CB80F5E7000082B0084B1B68084ACC
:101A1C00A2FB03235B0A00FB03F0019000BF019BB8
:101A2C005A1E0192002BF9D102B07047E001002040
:101A3C00D34D6210002800F08C8270B582B0044641
:101A4C00036813B113F00F0F2AD0236813F0010FA2
:101A5C0040D063682BB1B3F5803F02D0B3F5A02F13
:101A6C0024D1A94B5B6803F00C03042B29D0A64BA3
:101A7C005B6803F00C03082B1ED06368B3F5803F42
:101A8C0055D0002B69D103F1804303F504331A6858
:101A9C0022F480321A601A6822F480221A604BE019
:101AAC0040F26711994803F0E9FFCEE740F26D115F
:101ABC00964803F0E3FFD4E7934B5B6813F4803F45
:101ACC00DBD0914B1B6813F4003F03D06368002BF1
:101ADC0000F04182236813F0020F00F08A80236922
:101AEC00012B63D863691F2B66D8874B5B6813F097
:101AFC000C0F6CD0844B5B6803F00C03082B61D08B
:101B0C002369002B00F09A80814B01221A60FEF7AA
:101B1C0059FB05467C4B1B6813F0020F40F0858087
:101B2C00FEF750FB401B0228F4D9032016E2764A3C
:101B3C00136843F480331360636843B3FEF742FBCE
:101B4C000546714B1B6813F4003FC3D1FEF73AFBFB
:101B5C00401B6428F5D9032000E2B3F5A02F09D06F
:101B6C00694B1A6822F480321A601A6822F48022B7
:101B7C001A60E1E703F18043A3F53C331A6842F4A1
:101B8C0080221A601A6842F480321A60D4E7FEF799
:101B9C0019FB05465C4B1B6813F4003F9AD0FEF70B
:101BAC0011FB401B6428F5D90320D7E140F2A111A9
:101BBC00564803F063FF95E74FF4D171534803F097
:101BCC005DFF92E7504B5B6813F4803F98D14E4B0E
:101BDC001B6813F0020F04D02369012B01D00120E4
:101BEC00BCE1494A136823F0F803616943EAC10375
:101BFC001360236813F0080F3BD0A369012B2FD877
:101C0C00A369002B66D0434B01221A60FEF7DAFA67
:101C1C0005463D4B5B6A13F0020F27D1FEF7D2FA53
:101C2C00401B0228F5D9032098E1374A136823F0AA
:101C3C00F803616943EAC1031360DAE7344B00220D
:101C4C001A60FEF7BFFA05462F4B1B6813F0020F04
:101C5C00CFD0FEF7B7FA401B0228F5D903207DE15F
:101C6C004FF4F171294803F009FFC9E70120FFF790
:101C7C00CBFE236813F0040F00F0A580E368012B62
:101C8C0001D9052B38D1204BDB6913F0805F39D19A
:101C9C001D4BDA6942F08052DA61DB6903F0805344
:101CAC000193019B01251C4B1B6813F4807F35D0DD
:101CBC00E368012B46D0002B5CD103F1804303F584
:101CCC0004331A6A22F001021A621A6A22F0040220
:101CDC001A623CE00F4B00221A60FEF773FA0546BD
:101CEC00094B5B6A13F0020FC3D0FEF76BFA401B73
:101CFC000228F5D9032031E140F21121034803F009
:101D0C00BDFEC0E70025CEE700100240B06600081B
:101D1C00000042428004424200700040924A136824
:101D2C0043F480731360FEF74DFA06468E4B1B6826
:101D3C0013F4807FBCD1FEF745FA801B6428F5D9DB
:101D4C0003200BE1894A136A43F001031362E36831
:101D5C0033B3FEF737FA0646844B1B6A13F0020FB7
:101D6C002FD1FEF72FFA801B41F288339842F3D91A
:101D7C000320F3E0052B09D07C4B1A6A22F00102F8
:101D8C001A621A6A22F004021A62E0E7774B1A6AA6
:101D9C0042F004021A621A6A42F001021A62D6E791
:101DAC00FEF710FA0646714B1B6A13F0020F08D0AF
:101DBC00FEF708FA801B41F288339842F3D90320CE
:101DCC00CCE0002D53D1E369022B56D8E369002BEC
:101DDC0000F0C380654A526802F00C02082A00F039
:101DEC00A680022B40F08F80236A13B1B3F5803F9D
:101DFC0049D1636A4BB3B3F5802F26D0B3F5002FCE
:101E0C0023D0B3F5402F20D0B3F5801F1DD0B3F5F0
:101E1C00A01F1AD0B3F5C01F17D0B3F5E01F14D014
:101E2C00B3F5001F11D0B3F5101F0ED0B3F5201F62
:101E3C000BD0B3F5301F08D0B3F5401F05D0B3F568
:101E4C00501F02D0B3F5601F23D1494B00221A60FA
:101E5C00FEF7B8F90546454B1B6813F0007F1ED002
:101E6C00FEF7B0F9401B0228F5D9032076E03F4A73
:101E7C00D36923F08053D361A5E740F2AF213D48ED
:101E8C0003F0FCFDA2E74FF42E713A4803F0F6FD87
:101E9C00AFE740F2B921374803F0F0FDD5E7236AEC
:101EAC00B3F5803F1AD031494B6823F47413226A7E
:101EBC00606A024313434B602D4B01221A60FEF7FC
:101ECC0081F90446294B1B6813F0007F19D1FEF7EA
:101EDC0079F9001B0228F5D903203FE0A36813B160
:101EEC00B3F5003F07D1214A536823F40033A168AE
:101EFC000B435360D7E740F2CF211E4803F0BEFDE1
:101F0C00F1E700202AE01A4B00221A60FEF75AF97A
:101F1C000446164B1B6813F0007F06D0FEF752F9EF
:101F2C00001B0228F5D9032018E0002016E0012B35
:101F3C0016D00E4B5B6803F48031226A914201D0BB
:101F4C0001200BE003F47013626A93420AD0012063
:101F5C0004E001207047012000E0002002B070BDB9
:101F6C000120FBE70020F9E7007000400010024060
:101F7C0060004242B066000810B487B0184C94E878
:101F8C000F000DF1180C0CE90F00238AADF804308A
:101F9C00144B5B6803F00C02042A03D0082A05D00A
:101FAC00114800E0114807B010BC7047C3F38342DE
:101FBC0006A90A4412F8102C13F4803F0CD0094BDC
:101FCC005B68C3F340430B4413F8143C074800FB15
:101FDC0002F0B0FBF3F0E6E7044800FB02F0E2E7A6
:101FEC00146500080010024000127A0000093D0040
:101FFC00002800F0FF8070B504460D46036813F00E
:10200C000F0F14D0022D18D87C4B1B6803F007035C
:10201C00AB4218D2794A136823F007032B431360A1
:10202C00136803F00703AB420DD0012070BD4FF4D1
:10203C004E71734803F022FDE4E740F239317048E9
:10204C0003F01CFDE0E7236813F0020F29D013F016
:10205C00040F04D06B4A536843F4E0635360236865
:10206C0013F0080F04D0674A536843F4605353606D
:10207C00A3687BB1802B0DD0902B0BD0A02B09D05B
:10208C00B02B07D0C02B05D0D02B03D0E02B01D028
:10209C00F02B32D15B4A536823F0F003A1680B4359
:1020AC005360236813F0010F41D06368022B2AD8C8
:1020BC006368012B2DD0022B32D0524A126812F0D9
:1020CC00020F00F099804F494A6822F00302134333
:1020DC004B60FEF777F806464A4B5B6803F00C033F
:1020EC006268B3EB820F22D0FEF76CF8801B41F2D2
:1020FC0088339842F0D9032098E740F25F3140488A
:10210C0003F0BCFCC6E740F266313D4803F0B6FC78
:10211C00CEE73C4A126812F4003FD4D1012085E787
:10212C00384A126812F0007FCDD101207EE7334B84
:10213C001B6803F00703AB420CD9304A136823F039
:10214C0007032B431360136803F00703AB4201D062
:10215C0001206BE7236813F0040F14D0E3685BB124
:10216C00B3F5806F08D0B3F5A06F05D0B3F5C06F91
:10217C0002D0B3F5E06F31D1224A536823F4E06307
:10218C00E1680B435360236813F0080F15D02369E3
:10219C005BB1B3F5806F08D0B3F5A06F05D0B3F584
:1021AC00C06F02D0B3F5E06F1ED1164A536823F40A
:1021BC006053216943EAC1035360FFF7DDFE114B05
:1021CC005B68C3F30313104AD35CD8400F4B186001
:1021DC000F4B1868FDF7B4FF002027E74FF4697127
:1021EC00074803F04BFCC7E740F2AB31044803F05F
:1021FC0045FCDAE701207047012017E70020024078
:10220C00B0660008001002403C650008E0010020A8
:10221C0004000020014B1868704700BFE00100204B
:10222C0008B5FFF7F7FF044B5B68C3F3C223034AFF
:10223C00D35CD84008BD00BF001002404C650008BC
:10224C0070B582B00446036813F0130F6DD0236889
:10225C0013F0010F3FD0636843B1B3F5807F05D015
:10226C00B3F5007F02D0B3F5407F63D1504BDB69EF
:10227C0013F0805F63D14E4BDA6942F08052DA6121
:10228C00DB6903F080530193019B0125494B1B68CB
:10229C0013F4807F55D0464B1B6A13F4407311D056
:1022AC00626802F440729A420CD0414A136A23F4D9
:1022BC004070414901260E6000260E60106213F03A
:1022CC00010F52D13A4A136A23F4407361680B43ED
:1022DC001362002D5AD1236813F0020F11D0A3689A
:1022EC0043B1B3F5804F05D0B3F5004F02D0B3F531
:1022FC00404F50D12E4A536823F44043A1680B43FE
:10230C005360236813F0100F50D0E368B3F5800FBF
:10231C0001D0002B44D1264A536823F48003E16892
:10232C000B435360002002B070BD6C21234803F0B6
:10233C00A5FB8CE77221214803F0A0FB96E7002552
:10234C00A4E71C4A136843F480731360FDF73AFF4B
:10235C000646184B1B6813F4807F9CD1FDF732FFA7
:10236C00801B6428F5D90320DDE7FDF72BFF06461B
:10237C000F4B1B6A13F0020FA4D1FDF723FF801B38
:10238C0041F288339842F3D90320CCE7D36923F088
:10239C008053D3619FE7B921084803F06FFBA9E78D
:1023AC0040F21511054803F069FBB4E70020BAE7C9
:1023BC00001002400070004040044242E8660008F1
:1023CC0030B587B005463D4C94E80F000DF1180C64
:1023DC000CE90F00238AADF8043015F0130F07D069
:1023EC00022D56D0102D09D0012D31D000205AE0ED
:1023FC004FF4CB71324803F041FBF1E7314B5A6893
:10240C001B6813F0807F50D0C2F3834306A90B44A2
:10241C0013F8100C12F4803F16D02A4B5B68C3F3F0
:10242C0040430B4413F8142C274BB3FBF2F300FB83
:10243C0003F0244B5B6813F4800F34D14000234B22
:10244C00A3FB003040082EE01F4B03FB00F0F0E72D
:10245C001C4B1B6A40F202321A40B2F5817F26D027
:10246C0003F44073B3F5007F04D0B3F5407F09D07B
:10247C00002018E0134A526A12F0020FF5D049F608
:10248C00404010E00F4B1B6813F4003F12D10020AA
:10249C0009E0FFF7C5FE0B4B5B68C3F381330133D7
:1024AC005B00B0FBF3F007B030BD0020FBE74FF44E
:1024BC000040F8E747F61220F5E700BF2865000852
:1024CC00E86600080010024000093D00ABAAAAAA69
:1024DC00F8B505460F4616461C462B689B6837EA2E
:1024EC0003030CBF01230023B34237D0B4F1FF3FE9
:1024FC00F3D0FDF767FE069BC01AA04201D2002C58
:10250C00EBD12A68536823F0E00353606B68B3F592
:10251C00827F0BD0AB6AB3F5005F14D0012385F832
:10252C005130002385F85030032018E0AB68B3F528
:10253C00004F02D0B3F5806FECD12A68136823F0FA
:10254C0040031360E6E72A68136823F40053136012
:10255C002A68136843F400531360DFE70020F8BDCA
:10256C0010B582B0044600920B4600228021FFF782
:10257C00AFFF034610B9184602B010BD636D43F0AF
:10258C00200363650323F6E7002800F0B98010B53B
:10259C00044603685B4A934208D0A2F57842934202
:1025AC0004D04FF4AC71584803F068FA636813B167
:1025BC00B3F5827F68D1A3682BB1B3F5806F02D0DD
:1025CC00B3F5004F66D1E368B3F5006F01D0002B73
:1025DC0066D1A369B3F5007F03D013B1B3F5802F97
:1025EC0064D1E3696BB1082B0BD0102B09D0182BDD
:1025FC0007D0202B05D0282B03D0302B01D0382B23
:10260C005AD1236A0BB1802B5CD1636A002B5FD14A
:10261C00636A33B923690BB1022B5FD16369012B58
:10262C0062D80023A36294F85130002B62D00223AD
:10263C0084F851302268136823F0400313606368F8
:10264C00A2681343E268134322691343626913437C
:10265C00A26902F400721343E2691343226A134322
:10266C00A16A22680B431360638B226803F0040396
:10267C0053602268D36923F40063D3610020606542
:10268C00012384F8513010BD40F259111E4803F05B
:10269C00F5F990E74FF4AD711B4803F0EFF992E7B1
:1026AC0040F25B11184803F0E9F992E74FF4AE7170
:1026BC00154803F0E3F994E740F25D11124803F07A
:1026CC00DDF99EE74FF4AF710F4803F0D7F99CE7A3
:1026DC0040F261110C4803F0D1F999E74FF4B27153
:1026EC00094803F0CBF999E740F26511064803F06D
:1026FC00C5F996E784F85030204603F0E5F996E7E3
:10270C000120704700300140246700082DE9F0419A
:10271C0082B00446884617461D46836813B1B3F54C
:10272C00004F19D194F85030012B00F0C5800123D3
:10273C0084F85030FDF746FD064694F85130DBB274
:10274C00012B0FD00220012384F85130002384F890
:10275C00503002B0BDE8F08140F20A31574803F026
:10276C008DF9DFE7B8F1000F00F09880002F00F032
:10277C009780032384F8513000236365C4F83080BC
:10278C00A786E786A363A387E38763642364A368B0
:10279C00B3F5004F1CD023681A6812F0400F03D118
:1027AC001A6842F040021A60E368B3F5006F15D066
:1027BC0063680BB1012F49D1226B236812781A730D
:1027CC00236B01332363E38E013B9BB2E3863DE035
:1027DC002268136843F480431360DCE763680BB131
:1027EC00012F15D1226B23681288DA60236B023318
:1027FC002363E38E013B9BB2E38609E0FDF7E2FC29
:10280C00801BA84202D3B5F1FF3F4BD1002D4BD01A
:10281C00E38E9BB2002B2CD023689A6812F0020F27
:10282C00ECD0226B1288DA60236B02332363E38EC5
:10283C00013B9BB2E386EBE7FDF7C4FC801BA8428F
:10284C0002D3B5F1FF3F31D1002D31D0E38E9BB2D5
:10285C007BB123689A6812F0020FEDD0226B1278CC
:10286C001A73236B01332363E38E013B9BB2E38624
:10287C00ECE7324629462046FFF772FE08B12023CA
:10288C006365A36833B901932368DA6801929B6886
:10289C000193019B636D6BB9002054E7012052E753
:1028AC00012050E703204EE703204CE703204AE7C2
:1028BC00032048E7012046E702204AE72467000886
:1028CC002DE9F04383B004460F4690461E460A9D00
:1028DC008368F3B994F85030012B00F00E8101237A
:1028EC0084F85030FDF76EFC814694F85130DBB221
:1028FC006268012B1BD0B2F5827F10D0022301221B
:10290C0084F85120002284F85020184603B0BDE80A
:10291C00F08340F282417A4803F0B0F8DAE7A2681B
:10292C00002A40F0DC80042B01D00223E7E7002FC3
:10293C0000F0D780B8F1000F00F0D580002E00F029
:10294C00D48094F85130DBB2042B02D0052384F8E8
:10295C00513000236365C4F83880E687A687276367
:10296C00E686A6862364636423681A6812F0400F17
:10297C0003D11A6842F040021A60E368B3F5006FA5
:10298C0010D063680BB1012E0AD1226B2368127828
:10299C001A73236B01332363E38E013B9BB2E386F3
:1029AC00012668E063680BB1012E0AD1226B236803
:1029BC001288DA60236B02332363E38E013B9BB2F4
:1029CC00E38601261BE023689A6812F0010F0DD0F4
:1029DC00E28F92B252B1DA68A36B1A80A36B023306
:1029EC00A363E38F013B9BB2E3870126FDF7EAFB70
:1029FC00A0EB0900A84202D3B5F1FF3F77D1E38EDB
:102A0C009BB21BB9E38F9BB2002B51D023689A6801
:102A1C0012F0020FD7D0E28E92B2002AD3D0002E41
:102A2C00D1D0226B1288DA60236B02332363E38EDE
:102A3C00013B9BB2E3860026C5E723689A6812F037
:102A4C00010F0DD0E28F92B252B1DA68A36B1A70FB
:102A5C00A36B0133A363E38F013B9BB2E387012696
:102A6C00FDF7B0FBA0EB0900A84202D3B5F1FF3F84
:102A7C003FD1002D3FD0E38E9BB213B9E38F9BB2B5
:102A8C00B3B123689A6812F0020FD6D0E28E92B2DC
:102A9C00002AD2D0002ED0D0226B12781A73236B5E
:102AAC0001332363E38E013B9BB2E3860026C4E72C
:102ABC004A4629462046FFF753FD034618B120230A
:102ACC00636501231BE7A268002A7FF418AF01920B
:102ADC002268D168019192680192019A0FE7022352
:102AEC000DE701230BE7012309E7012307E7032384
:102AFC0005E7032303E7032301E7022305E700BFF0
:102B0C002467000810B4036A046A24F00104046208
:102B1C00846924F0F00444EA021223F00A030B4304
:102B2C008261036210BC704710B4036A23F0100377
:102B3C0003628469036A24F4704444EA023223F089
:102B4C00A00343EA01138261036210BC70478368DF
:102B5C0023F07003194341F00701816070470000B6
:102B6C0010B504460368124A93420FD0B3F1804F5C
:102B7C000CD0A2F59432934208D002F580629342B5
:102B8C0004D040F2B9110B4802F078FF2268D368E8
:102B9C0043F00103D3602268936803F00703062B0C
:102BAC0003D0136843F001031360002010BD00BF75
:102BBC00002C01405C6700087047704770477047F5
:102BCC0010B5044603681A6912F0020F11D0DA68C6
:102BDC0012F0020F0DD06FF002021A61012303777D
:102BEC0003689B6913F0030F70D002F0FBFF002306
:102BFC00237723681A6912F0040F12D0DA6812F0E6
:102C0C00040F0ED06FF004021A610223237723689D
:102C1C009B6913F4407F5FD0204602F0E3FF002352
:102C2C00237723681A6912F0080F12D0DA6812F0B1
:102C3C00080F0ED06FF008021A6104232377236863
:102C4C00DB6913F0030F4ED0204602F0CBFF0023BC
:102C5C00237723681A6912F0100F12D0DA6812F079
:102C6C00100F0ED06FF010021A610823237723681F
:102C7C00DB6913F4407F3DD0204602F0B3FF002304
:102C8C00237723681A6912F0010F03D0DA6812F067
:102C9C00010F36D123681A6912F0800F03D0DA685D
:102CAC0012F0800F34D123681A6912F0400F03D050
:102CBC00DA6812F0400F32D123681A6912F0200F33
:102CCC0003D0DA6812F0200F30D110BDFFF775FF7A
:102CDC002046FFF773FF8AE72046FFF76EFF20467A
:102CEC00FFF76CFF9BE72046FFF767FF2046FFF7D7
:102CFC0065FFACE72046FFF760FF2046FFF75EFF5D
:102D0C00BDE76FF001021A612046FFF755FFC1E7DE
:102D1C006FF080021A61204600F05FFCC3E76FF091
:102D2C0040021A612046FFF74AFFC5E76FF0200208
:102D3C001A61204600F050FCC7E7000003681B4AEC
:102D4C0090420AD0B0F1804F07D0A2F59432904255
:102D5C0003D002F58062904203D123F070034A68DD
:102D6C001343124A90420AD0B0F1804F07D0A2F51B
:102D7C009432904203D002F58062904203D123F446
:102D8C004073CA68134323F080034A6913430360FA
:102D9C008B68C3620B688362044B984202D0012398
:102DAC00436170470B690363F9E700BF002C0140D6
:102DBC00002852D010B504460368294A93420FD01C
:102DCC00B3F1804F0CD0A2F59432934208D002F5A7
:102DDC008062934204D04FF48971224802F04EFE77
:102DEC00A3683BB1102B05D0202B03D0402B01D076
:102DFC00602B1AD123692BB1B3F5807F02D0B3F5C8
:102E0C00007F18D1A3690BB1802B1AD194F83D30F7
:102E1C00EBB1022384F83D30211D2068FFF78EFFB3
:102E2C00012384F83D30002010BD40F213110D48F1
:102E3C0002F024FEDEE74FF48A710A4802F01EFE0F
:102E4C00E0E740F21511074802F018FEDEE784F8BF
:102E5C003C30204603F018F8DBE70120704700BF38
:102E6C00002C01405C670008002800F0F880F8B5E1
:102E7C0005460C46836843B1102B06D0202B04D09A
:102E8C00402B02D0602B40F09C802B6933B1B3F502
:102E9C00807F03D0B3F5007F40F09980AB6913B10C
:102EAC00802B40F09A802B686E4A93420FD0B3F17E
:102EBC00804F0CD0A2F59432934208D002F5806278
:102ECC00934204D040F63421674802F0D7FD2368C2
:102EDC00013B022B00F28780A368013B022B00F21E
:102EEC008880A369013B022B00F28980636823B1BF
:102EFC00022B02D00A2B40F08880636923B1022B8D
:102F0C0002D00A2B40F08780E36833B1042B04D045
:102F1C00082B02D00C2B40F08480E36933B1042BD6
:102F2C0004D0082B02D00C2B40F0818023690F2B8E
:102F3C0000F28380236A0F2B00F2858095F83D30D8
:102F4C00002B00F08680022385F83D30294651F88D
:102F5C00042B936823F4804323F0070393602868C1
:102F6C00FFF7ECFE29688A688E690F6A20681043A7
:102F7C0026F4407626F00306A268A36942EA0323EE
:102F8C00334323F47C4323F0FC03E668E26946EA0E
:102F9C0002261E43226A1303226943EA02133343B7
:102FAC0027F022076268646942EA04123A43886097
:102FBC0029688B612B681A62012385F83D3000204B
:102FCC00F8BD40F63121284802F058FD5DE740F687
:102FDC003221254802F052FD60E740F633212248A9
:102FEC0002F04CFD5FE740F635211F4802F046FD2C
:102FFC0072E740F636211C4802F040FD71E740F6BE
:10300C003721194802F03AFD70E740F6382116488E
:10301C0002F034FD71E740F63921134802F02EFD21
:10302C0072E740F63A21104802F028FD75E740F6A9
:10303C003B210D4802F022FD78E740F63C210A487E
:10304C0002F01CFD76E740F63D21074802F016FD24
:10305C0074E785F83C30284602F036FF73E7012010
:10306C00704700BF002C01405C67000810B48468F6
:10307C0024F47F4442EA03230B432343836010BCB4
:10308C007047000038B590F83C30012B00F0BA8145
:10309C000D460446012380F83C30022380F83D3075
:1030AC000B68B3F5805F11D0B3F5005F0ED06BB138
:1030BC00102B0BD0202B09D0302B07D0402B05D058
:1030CC00502B03D0602B01D0702B41D12268936818
:1030DC0023F47F4323F0770393602B68402B00F09D
:1030EC005B813BD9702B00F0B0805BD8502B00F08B
:1030FC000D81602B40F0DF802368A54A93420FD0EE
:10310C00B3F1804F0CD0A2F59432934208D002F563
:10311C008062934204D041F2D9119E4802F0AEFC79
:10312C006B68B3F5004F05D023B1022B02D00A2BEC
:10313C0040F02281EB680F2B00F22481EA68696869
:10314C002068FFF7F1FC60212068FFF700FDB2E07A
:10315C0041F28A118F4802F091FCB7E7102B08D08E
:10316C0004D9202B05D0302B03D0A4E0002B40F049
:10317C00A2802368864A93420FD0B3F1804F0CD0C3
:10318C00A2F59432934208D002F58062934204D0A7
:10319C0041F2FC117F4802F071FC29682068FFF7AE
:1031AC00D6FC88E0B3F5805F3AD0B3F5005F40F011
:1031BC0082802368764A93420FD0B3F1804F0CD0B3
:1031CC00A2F59432934208D002F58062934204D067
:1031DC0041F2B5116F4802F051FCAB6843B1B3F545
:1031EC00805F05D0B3F5005F02D0B3F5405F7BD1B3
:1031FC006B68B3F5004F04D01BB1022B01D00A2B26
:10320C0078D1EB680F2B7BD8EB686A68A9682068CB
:10321C00FFF72CFF2268936843F4804393604AE0E5
:10322C0023685B4A934246D0B3F1804F43D0A2F55A
:10323C00943293423FD002F5806293423BD041F2EC
:10324C009611544802F01AFC35E02368504A934218
:10325C000FD0B3F1804F0CD0A2F59432934208D02A
:10326C0002F58062934204D041F29D11494802F06C
:10327C0005FCAB6843B1B3F5805F05D0B3F5005FD7
:10328C0002D0B3F5405F1DD16B68B3F5004F04D08D
:10329C001BB1022B01D00A2B1AD1EB680F2B1DD8B6
:1032AC00EB686A68A9682068FFF7E0FE22689368FB
:1032BC0043F077039360012384F83D30002084F8B9
:1032CC003C0038BD4FF48D51324802F0D7FBDBE7A0
:1032DC0041F2A1112F4802F0D1FBDEE741F2A2111D
:1032EC002C4802F0CBFBDBE741F2B811294802F085
:1032FC00C5FB7DE741F2B911264802F0BFFB80E720
:10330C0041F2BA11234802F0B9FB7DE72368204A49
:10331C0093420FD0B3F1804F0CD0A2F5943293426C
:10332C0008D002F58062934204D041F2C9111948C9
:10333C0002F0A4FB6B68B3F5004F04D01BB1022B59
:10334C0001D00A2B0CD1EB680F2B0FD8EA686968F7
:10335C002068FFF7D7FB50212068FFF7F8FBAAE79E
:10336C0041F2CC110B4802F089FBECE741F2CD1194
:10337C00084802F083FBE9E741F2DC11054802F052
:10338C007DFBD7E641F2DD11024802F077FBD5E672
:10339C00002C01405C67000823681B4A93420FD045
:1033AC00B3F1804F0CD0A2F59432934208D002F5C1
:1033BC008062934204D041F2E911144802F05EFBA2
:1033CC006B68B3F5004F04D01BB1022B01D00A2B54
:1033DC000CD1EB680F2B0FD8EA6869682068FFF7EF
:1033EC0091FB40212068FFF7B2FB64E741F2EC113E
:1033FC00064802F043FBECE741F2ED11034802F002
:10340C003DFBE9E702205CE7002C01405C6700080B
:10341C0070B504460D461646174B98420FD0B0F1C6
:10342C00804F0CD0A3F59433984208D003F58063F9
:10343C00984204D041F6C911104802F01FFB65B147
:10344C00042D0AD0082D08D00C2D06D03C2D04D00C
:10345C0041F6CA11094802F011FB05F01F050123C2
:10346C0003FA05F2236A23EA02032362236A06FAAB
:10347C0005F51D43256270BD002C01405C670008FA
:10348C0038B504460D460368234A93420FD0B3F176
:10349C00804F0CD0A2F59432934208D002F5806292
:1034AC00934204D04FF433611C4802F0E7FAB5B1F3
:1034BC00042D25D0012200212068FFF7A9FF01224D
:1034CC0004212068FFF7A4FF2268D36843F00203AD
:1034DC00D3602268D36843F00403D36009E001226F
:1034EC0000212068FFF794FF2268D36843F00203A1
:1034FC00D3602268136843F001031360002038BDC9
:10350C00012204212068FFF783FF2268D36843F06F
:10351C000403D360EDE700BF002C01405C6700089A
:10352C0070B504460D460368294A93420FD0B3F197
:10353C00804F0CD0A2F59432934208D002F58062F1
:10354C00934204D040F26461224802F097FA2B684F
:10355C006BB1102B0BD0202B09D0302B07D0402B6C
:10356C0005D0502B03D0602B01D0702B21D16B6870
:10357C00802B00D01BBB94F83C30012B25D00126AE
:10358C0084F83C60022384F83D30226850689368CC
:10359C0020F070002968014323F080006B6803431E
:1035AC0051602268936084F83D60002084F83C00F0
:1035BC0070BD40F26561074802F060FAD7E740F24F
:1035CC006661044802F05AFAD5E70220F0E700BF22
:1035DC00002C0140946700087047704784B001A824
:1035EC0080E80E00002004B07047B0F8403043F47F
:1035FC003F43A0F8403000207047B0F8403023F42F
:10360C007C535B045B0CA0F840300020704700201A
:10361C00704784B038B505AC84E80E000123A0F8DF
:10362C0040300024A0F84040A0F84440A0F850409E
:10363C00FFF7DBFF2046BDE8384004B0704730B4DC
:10364C0003460C7830F8242092B222F4EC4222F09B
:10365C00700292B2C87803285AD8DFE800F04D55B2
:10366C000251002048F280052A4323F824200C78CC
:10367C0033F8242092B222F4E04222F0700222436A
:10368C002A4323F824200A7B002A40F0B1804A7890
:10369C00002A4ED0B3F850201A440C7802EB0412D6
:1036AC00CC8864086400A2F800440C7833F8242019
:1036BC0012F0400F0CD033F8242092B222F4E042E6
:1036CC0022F0700242F4004242F0C00223F824209F
:1036DC00CA78012A1ED0097833F8212092B222F43C
:1036EC00E04222F0400282F0200242F4004242F01A
:1036FC00800223F8212060E042F400720020B1E740
:10370C0042F4C0620020ADE742F480620020A9E7D9
:10371C000120A7E7097833F8212092B222F4E04285
:10372C0022F0400242F4004242F0800223F82120B1
:10373C0043E0B3F850201A440C7802EB0412CC8806
:10374C0064086400A2F80844B3F850201A440C78BA
:10375C0002EB04120C6994BBB2F80C44A4B224F42E
:10376C00F844A4B2A2F80C44B2F80C4444F400445B
:10377C00A2F80C440C7833F8242012F4804F0CD0AF
:10378C0033F8242092B222F4E04222F0700242F488
:10379C00404242F0800223F82420097833F821209B
:1037AC0092B222F4804222F0700282F4405242F42F
:1037BC00004242F0800223F8212030BC70473E2C9E
:1037CC0009D8650814F0010F00D00135AD02ADB277
:1037DC00A2F80C54CEE7650914F01F0F00D1013D7F
:1037EC006FEAC5646FEA5444A4B2A2F80C44C1E772
:1037FC000C7833F8242092B222F4E04222F07002CA
:10380C0042F4014242F0800223F82420B3F8502005
:10381C001A440C7802EB04120C8964086400A2F8B8
:10382C000044B3F850201A440C7802EB04124C8973
:10383C0064086400A2F808444A78002A4ED10C7837
:10384C0033F8242012F4804F0CD033F8242092B299
:10385C0022F4E04222F0700242F4404242F0800234
:10386C0023F824200C7833F8242012F0400F0CD0CD
:10387C0033F8242092B222F4E04222F0700242F497
:10388C00004242F0C00223F824200C7833F82420A4
:10389C0092B222F4E04222F0700242F4004242F072
:1038AC00C00223F824200D7833F8252092B222F49C
:1038BC00804222F0700282F4405248F2800422438B
:1038CC0023F82520097833F8212092B222F4E04223
:1038DC0022F04002224323F821206EE70C7833F8C3
:1038EC00242012F4804F0CD033F8242092B222F40E
:1038FC00E04222F0700242F4404242F0800223F88F
:10390C0024200C7833F8242012F0400F0CD033F81C
:10391C00242092B222F4E04222F0700242F40042DF
:10392C0042F0C00223F824200C7833F8242092B201
:10393C0022F4E04222F0700242F4404242F0800253
:10394C0023F82420CA78012A1ED00C7833F82420BE
:10395C0092B222F4E04222F0400282F0200242F4C1
:10396C00004242F0800223F82420097833F8212009
:10397C0092B222F4804222F0700242F4004242F0F1
:10398C00800223F8212018E70C7833F8242092B217
:10399C0022F4E04222F0400242F4004242F0800263
:1039AC0023F82420E1E70B7B002B46D14B7813B393
:1039BC000A7830F8223013F0400F0CD030F8223057
:1039CC009BB223F4E04323F0700343F4004343F031
:1039DC00C00320F822300A7830F822309BB223F44E
:1039EC00E04323F0400343F4004343F0800320F80A
:1039FC002230002070470A7830F8223013F4804FC0
:103A0C000CD030F822309BB223F4E04323F0700347
:103A1C0043F4404343F0800320F822300A7830F816
:103A2C0022309BB223F4804323F0700343F4004311
:103A3C0043F0800320F82230DBE710B44B78002BE6
:103A4C004ED10A7830F8223013F4804F0CD030F875
:103A5C0022309BB223F4E04323F0700343F4404341
:103A6C0043F0800320F822300A7830F8223013F02B
:103A7C00400F0CD030F822309BB223F4E04323F0FB
:103A8C00700343F4004343F0C00320F822300A785B
:103A9C0030F822309BB223F4E04323F0700343F45C
:103AAC00004343F0C00320F822300B7830F8232079
:103ABC0092B222F4804222F0700248F28004224337
:103ACC0020F823200A7830F822309BB223F4E0430C
:103ADC0023F04003234320F82230002010BC704711
:103AEC000A7830F8223013F4804F0CD030F82230A2
:103AFC009BB223F4E04323F0700343F4404343F0C0
:103B0C00800320F822300A7830F8223013F0400F6E
:103B1C000CD030F822309BB223F4E04323F0700336
:103B2C0043F4004343F0C00320F822300A7830F805
:103B3C0022309BB223F4E04323F0700343F4404360
:103B4C0043F0800320F822300B7830F8232092B217
:103B5C0022F4E04222F0400248F28004224320F892
:103B6C0023200A7830F822309BB223F4804323F0D0
:103B7C007003234320F82230AFE74B788BB90A78D7
:103B8C0030F822309BB223F4804323F0700383F48B
:103B9C00805343F4004343F0800320F8223000208C
:103BAC0070470A7830F822309BB223F4E04323F0BC
:103BBC00400383F0100343F4004343F0800320F8E8
:103BCC002230ECE70B7B002B4BD14B7833B30A78CC
:103BDC0030F8223013F0400F0CD030F822309BB26A
:103BEC0023F4E04323F0700343F4004343F0C00399
:103BFC0020F82230CB78012B33D00A7830F82230E1
:103C0C009BB223F4E04323F0400383F0200343F4FE
:103C1C00004343F0800320F8223022E00A7830F889
:103C2C00223013F4804F0CD030F822309BB223F4A6
:103C3C00E04323F0700343F4404343F0800320F847
:103C4C0022300A7830F822309BB223F4804323F0E0
:103C5C00700383F4405343F4004343F0800320F893
:103C6C0022300020704703460122A0F8402000209B
:103C7C00A3F844000322A3F84020704711B9802315
:103C8C00A0F84C300020704700207047002070478F
:103C9C00B0F8440070470020704701335B0800EB1C
:103CAC00420202F5806263B110B40C78487844EAA1
:103CBC00002422F8044B0231013B002BF5D110BC3F
:103CCC007047704770B54E78012E33D08A690B69F6
:103CDC009A4240F2FC80D21A8A610A7B002A40F098
:103CEC001381B0F8502002440C7802EB0412002B24
:103CFC0040F0F180B2F80C349BB223F4F8439BB241
:103D0C00A2F80C34B2F80C3443F40043A2F80C348F
:103D1C000A7830F822309BB223F4804323F07003EE
:103D2C0083F4405343F4004343F0800320F82230E3
:103D3C00002070BD8A690B699A4222D9D21A8A6115
:103D4C000C4605460A7B02B30A7830F8221011F0B3
:103D5C00400F72D0002E40D1B0F85010014401EB4E
:103D6C0002120BBBB2F80C1489B221F4F84189B2DF
:103D7C00A2F80C14B2F80C1441F40041A2F80C1483
:103D8C0033E000238B611346DAE79EB23346CA88D0
:103D9C004969FFF782FFB5F850302B44227803EBCA
:103DAC000213A3F8046437E03E2B09D8590813F02A
:103DBC00010F00D00131890289B2A2F80C1414E071
:103DCC00590913F01F0F00D101396FEAC1616FEA75
:103DDC00514189B2A2F80C1407E0B0F8501001441C
:103DEC0001EB021299B2A2F80C1462899BB26169C0
:103DFC002846FFF752FF6378002B57D1227835F80D
:103E0C0022309BB223F4E04323F0700343F40043CD
:103E1C0043F0C00325F82230227835F822309BB2CB
:103E2C0023F4E04323F0400383F0300343F40043D6
:103E3C0043F0800325F822307AE76EBBB0F85010BF
:103E4C00014401EB021273B9B2F8041489B221F4E3
:103E5C00F84189B2A2F80414B2F8041441F40041F8
:103E6C00A2F8041420E03E2B09D8590813F0010FD6
:103E7C0000D00131890289B2A2F8041414E0590966
:103E8C0013F01F0F00D101396FEAC1616FEA514184
:103E9C0089B2A2F8041407E0B0F85010014401EB09
:103EAC00021299B2A2F8041422899FE7012BB3D114
:103EBC00227835F822309BB223F4E04323F07003D0
:103ECC0043F4404343F0800325F82230A4E7002359
:103EDC008B61134601E73E2B09D85C0813F0010FE8
:103EEC0000D00134A402A4B2A2F80C4410E75C097F
:103EFC0013F01F0F00D1013C6FEAC4646FEA544405
:103F0C00A4B2A2F80C4403E7A6B9B0F850200244BE
:103F1C000C7802EB041233BBB2F80444A4B224F4C0
:103F2C00F844A4B2A2F80444B2F8044444F40044A3
:103F3C00A2F804444A78002A47D1B0F85020024431
:103F4C000C7802EB04123BBBB2F80C349BB223F49A
:103F5C00F8439BB2A2F80C34B2F80C3443F400438F
:103F6C00A2F80C34D4E63E2B09D85C0813F0010FF0
:103F7C0000D00134A402A4B2A2F80444DAE75C092C
:103F8C0013F01F0F00D1013C6FEAC4646FEA544474
:103F9C00A4B2A2F80444CDE73E2B09D85C0813F078
:103FAC00010F00D00134A402A4B2A2F80C44AFE675
:103FBC005C0913F01F0F00D1013C6FEAC4636FEA78
:103FCC0053439BB2A2F80C34A2E6012A7FF4A0AEB4
:103FDC00B0F8502002440C7802EB04129BB2A2F809
:103FEC000C3495E630B45D0800EB420202F58062B9
:103FFC0007E032F8044BA4B20C70240A4C70023166
:10400C00013D002DF5D113F0010F01D013880B7079
:10401C0030BC70476D2303800048704708000020B7
:10402C000020704710B5D0F8B84241F68A33E35CF3
:10403C00012B01D0002010BD41F6CC33E35C022BE8
:10404C00F8D1D0F8BC321B6941F68B32A05C984792
:10405C00002341F68A32A35441F6CB32A354E9E74C
:10406C0000207047002070470020704700207047E8
:10407C000A230380004870477800002038B5D0F838
:10408C00B842012901D0002038BD054641F68832DE
:10409C00A35A58339BB2A352B3F5DC5F14D041F64C
:1040AC008533E35C2BB941F68833E35AB3F55C6F87
:1040BC001FD041F68833E25A22445823043201219E
:1040CC00284602F081F8DEE713460022E25241F660
:1040DC008433E35C032BE2D1D0F8BC329B68012221
:1040EC004FF45C61201D984741F684330022E25462
:1040FC00D5E741F685330122E254DAE770B505467F
:10410C000E46D0F8B84204F5DC540B3440220021A2
:10411C00204602F0E5F9F2882146284600F04AFED6
:10412C0070BD38B5D0F8B852CA8802B938BD0C4643
:10413C0005F5DC510B3100F052FE41F68A330122B9
:10414C00EA54A27941F6CB33EA54A3881B0A41F610
:10415C00CC32AB54EAE7000010B582B00023ADF8C6
:10416C000630D0F8B8420B7813F0600312D0202B35
:10417C005DD14B78012B05D0812B07D1FFF7BEFF0A
:10418C00002057E0FFF7CDFF002053E000F0F2FADB
:10419C0002204FE04B780B2B45D8DFE803F00644A8
:1041AC004444444415444444243290F89C32032B38
:1041BC0006D102220DF1060100F0FCFD002039E0D1
:1041CC0000F0D8FA022035E04B881B0A212B01D0D5
:1041DC0000202FE0CA88092A28BF0922164900F0BE
:1041EC00E9FD002026E090F89C32032B05D101223A
:1041FC00214600F0DFFD00201CE000F0BBFA02209D
:10420C0018E090F89C32032B09D18B78012B02D843
:10421C00236000200EE000F0ADFA02200AE000F06E
:10422C00A9FA022006E000F0A5FA022002E000F054
:10423C00A1FA022002B010BD1A00002010B50446ED
:10424C00012101F086FF0023C4F86C31D4F8B83298
:10425C005BB1D4F8BC325B6800209847D4F8B80244
:10426C0001F0BEFF0023C4F8B832002010BD38B5F1
:10427C00054658230122114601F060FF0123C5F8C1
:10428C006C3141F6D03001F0A7FFC5F8B802F8B197
:10429C0004460022026041F684330321C15441F6E6
:1042AC008833C25241F68633C25241F68533C2542A
:1042BC00D5F8BC321B68462145F25460984748B982
:1042CC005823221D0121284601F07EFF002038BD15
:1042DC000220FCE70220FAE709B1C0F8BC1200206A
:1042EC0070470000044B1B78012B01D00020704755
:1042FC00014B00221A70F9E7740200206523038039
:10430C0000487047BC00002070B582B00446D0F85D
:10431C00BC62D0F8C0320A3103EB4113998802AD6C
:10432C0025F8021D33680D4898477368022128460A
:10433C009847002304E0094A0021D1540133DBB231
:10434C009AB2BDF806108A42F5D34023034A0121E4
:10435C00204601F039FF002002B070BD8806002015
:10436C0038B505460024054B5C60812101F0F1FE57
:10437C000121284601F0EDFE204638BD74020020D4
:10438C0010B504460A4B586040230222812101F0EB
:10439C00D5FE402302220121204601F0CFFE40230E
:1043AC00044A0121204601F00FFF002010BD00BF80
:1043BC0074020020880600201D4B1878012836D086
:1043CC009B68402B1FD01A4B9968DB6899421ED012
:1043DC0010B599421FD9C1F14003154A1361144B12
:1043EC00186940281BD98CB240319960403818614B
:1043FC0040230F48012101700E4A2244812140685C
:10440C0001F0DAFE10BD0A4B00229A60DBE70020B7
:10441C00074B187070475B1A054A1361DFE78CB2C3
:10442C0083B2034A0144916000211161E1E77047B6
:10443C00740200204806002019B1C0F8BC120020FC
:10444C0070470220704798B108B50346D0F8B40203
:10445C0010B10020C3F8B40209B1C3F8B012184669
:10446C00012380F89C32027001F01EFE002008BD72
:10447C000220704719B1C0F8B41200207047022016
:10448C00704708B501F04AFE002008BD10B504467F
:10449C00D0F8B4325B6801799847204601F046FEAB
:1044AC00002010BD08B5D0F8B43233B11B68984762
:1044BC0008B9002008BD0220FCE70220FAE708B585
:1044CC00D0F8B4325B689847002008BD38B5044674
:1044DC0000F52A75284600F039F90123C4F8943206
:1044EC00B4F8AE32C4F8983294F8A81201F01F0355
:1044FC00012B0ED03BB1022B10D001F080012046D5
:10450C0001F02FFE03E02946204600F0CCFA0020F3
:10451C0038BD2946204600F0FAFAF8E7294620462D
:10452C0000F025FBF3E738B50446A1BB1046D4F8E0
:10453C009432032B03D0052B24D0002037E0D4F881
:10454C006031D4F8642193420DD99B1AC4F86031C0
:10455C009A4206D99AB20146204600F04FFC002040
:10456C0025E092B2F7E7D4F8B4321B692BB194F87A
:10457C009C22032A01D120469847204600F046FC95
:10458C00002014E00025C4F894522946204601F07E
:10459C00E8FD28460BE00A46D0F8B4329B693BB1E3
:1045AC0090F89C12032905D111469847002038BD7C
:1045BC000220FCE70220FAE710B50446002953D18B
:1045CC001046D4F89432022B0CD0042B00D01BB91B
:1045DC008021204601F0C5FD94F8A032012B3FD07C
:1045EC0000204DE0236A626A93421DD8E169B1FB59
:1045FC00F2F302FB13132BB98A4203D8D4F8983286
:10460C0099421FD3D4F8B432DB682BB194F89C22B6
:10461C00032A01D1204698478021204601F0A1FDB4
:10462C00204600F0FEFBD7E79A1A226292B20146AE
:10463C00204600F0CCFB00231A461946204601F018
:10464C00C3FDC9E700221146204600F0C0FB002143
:10465C00C4F898120B460A46204601F0B5FDBBE79C
:10466C00002084F8A0020BE00A46D0F8B4325B6953
:10467C003BB190F89C12032905D1114698470020B4
:10468C0010BD0220FCE70220FAE770B50446402377
:10469C000022114601F052FD0125C4F85851402664
:1046AC00C4F86461334600228021204601F046FDA7
:1046BC00A561666284F89C520023C4F8943263604E
:1046CC00C4F8A432D4F8B8322BB1D4F8B4325B6845
:1046DC00002120469847002070BD017400207047CF
:1046EC0090F89C3280F89D32042380F89C32002094
:1046FC00704790F89C32042B01D00020704790F842
:10470C009D3280F89C32F8E708B590F89C32032B68
:10471C0001D0002008BDD0F8B432DB69002BF8D0F2
:10472C009847F6E7002302E00133DBB20130027850
:10473C00002AF9D11846704708B54B88012B00D0D8
:10474C0008BDC0F8A43200F061FBF9E70B780370E8
:10475C004B7843708B78CA7803EB022343800B7938
:10476C004A7903EB022383808B79CA7903EB02230A
:10477C00C380704710B50446802101F0F2FC002183
:10478C00204601F0EEFC10BD30B583B005460C465A
:10479C000023ADF806304A88130A013B062B00F2C1
:1047AC00A480DFE803F004182CA2A2869300D0F8B2
:1047BC00B0321B680DF10601007C9847BDF806204D
:1047CC001AB1E388002B40F09480E388002B00F0B2
:1047DC009A8003B030BD037C43B9D0F8B4329B6AE5
:1047EC000DF10600984702234370E7E7D0F8B43286
:1047FC00DB6A0DF10600984702234370DEE7D2B264
:10480C00052A52D8DFE802F003101D2A3744D0F8ED
:10481C00B0325B6823B10DF10601007C9847CDE7FF
:10482C002146FFF7A7FFD4E7D0F8B0329B6823B13D
:10483C000DF10601007C9847C0E72146FFF79AFF6F
:10484C00C7E7D0F8B032DB6823B10DF10601007C6C
:10485C009847B3E72146FFF78DFFBAE7D0F8B0329F
:10486C001B6923B10DF10601007C9847A6E7214690
:10487C00FFF780FFADE7D0F8B0325B6923B10DF1E3
:10488C000601007C984799E72146FFF773FFA0E7E4
:10489C00D0F8B0329B6923B10DF10601007C98472A
:1048AC008CE72146FFF766FF93E72146FFF762FF8F
:1048BC008FE7037C33B9D0F8B4325B6B0DF1060093
:1048CC0098477BE72146FFF755FF82E7037C43B906
:1048DC00D0F8B4321B6B0DF10600984707234370D8
:1048EC006CE72146FFF746FF73E72146FFF742FFCF
:1048FC006FE79A4228BF1A46ADF8062001462846B3
:10490C0000F058FA61E7284600F080FA61E738B504
:10491C0004468B88F3B9CB88E3B94B887F2B19D825
:10492C0003F07F0590F89C32032B0CD080F89E523C
:10493C00294601F039FC204600F068FA35B1022313
:10494C0084F89C3209E0FFF715FF06E0012384F898
:10495C009C3202E02046FFF70DFF38BD38B5044607
:10496C000D468978284B197001290ED890F89C3285
:10497C00022B0ED0032B21D02946FFF7FBFE224B36
:10498C0019782046FFF79BFD02E02946FFF7F2FE5F
:10499C0038BD81B14160032380F89C32FFF782FD62
:1049AC00022803D0204600F031FAF1E729462046D0
:1049BC00FFF7E0FEECE700F029FAE9E789B143687C
:1049CC0099421DD0D9B2FFF77AFD0F4B197861606F
:1049DC002046FFF767FD02280DD0204600F016FA9E
:1049EC00D6E7022380F89C324160FFF768FD204631
:1049FC0000F00CFACCE729462046FFF7BBFEC7E7D0
:104A0C0000F004FAC4E700BF9402002008B5CB887C
:104A1C00012B0BD190F89C329BB1022B09D9032BA3
:104A2C000FD10122011D00F0C5F901E0FFF7A2FE34
:104A3C0008BD0146002341F8083F012200F0BAF9F5
:104A4C00F6E7FFF797FEF3E708B590F89C32013BC9
:104A5C00022B12D8CB88022B0CD10123C360D0F8C7
:104A6C00A4320BB10323C360022200F10C0100F04D
:104A7C00A1F908BDFFF77EFEFBE7FFF77BFEF8E729
:104A8C0008B590F89C32013B022B09D84B88012BBE
:104A9C0000D008BD0023C0F8A43200F0B7F9F8E745
:104AAC00FFF768FEF5E708B50B7803F06003202BE1
:104ABC0005D0402B03D043B1FFF75CFE03E0D0F8E8
:104ACC00B4329B689847002008BD4B78092B1BD843
:104ADC00DFE803F011171A141A08051A0E0BFFF76A
:104AEC0053FEF0E7FFF713FFEDE7FFF737FFEAE7B9
:104AFC00FFF78CFFE7E7FFF7A7FFE4E7FFF71CFEE4
:104B0C00E1E7FFF7BDFFDEE7FFF734FEDBE738B583
:104B1C0005460C460B7803F06003202B06D0402B87
:104B2C0004D01BB1FFF726FE002038BD95F89C324F
:104B3C00013B022B16D82379012B0ED8D5F8B432B1
:104B4C009B68214628469847E388002BECD1002827
:104B5C00EAD1284600F05AF9E6E721462846FFF745
:104B6C0009FEE1E721462846FFF704FEDCE738B5ED
:104B7C0004468A880B7803F06003202B08D0D0B24F
:104B8C00402B05D05BB12046FFF7F4FD002005E07B
:104B9C00D4F8B4329B6820469847002038BD202BAF
:104BAC0005D1D4F8B4329B6820469847F6E74B7889
:104BBC00012B32D0002B5ED0032B40F0D88094F820
:104BCC009C32022B06D0032B16D02046FFF7D2FDC9
:104BDC000020E3E708B1802804D12046FFF7CAFD86
:104BEC000020DBE70146204601F0BBFA802120467D
:104BFC0001F0B7FA0020D1E74B8823B918B180280F
:104C0C0001D0CB8823B1204600F000F90020C5E785
:104C1C000146204601F0A5FAF5E794F89C32022BE8
:104C2C0006D0032B16D02046FFF7A4FD0020B5E7D5
:104C3C0008B1802804D12046FFF79CFD0020ADE789
:104C4C000146204601F08DFA8021204601F089FAB8
:104C5C000020A3E74B88002B40F08E8010F07F0FD4
:104C6C0004D1204600F0D2F8002097E701462046F8
:104C7C0001F07FFAF5E794F89C32022B06D0032B57
:104C8C002AD02046FFF776FD002087E708B1802860
:104C9C0013D112F0800F15D100F07F0000EB8000D3
:104CAC00830003F5A8712144043100250D60022214
:104CBC00204600F07FF8284670E72046FFF75AFDA3
:104CCC0000206BE700F07F0000EB8000830003F115
:104CDC00100121440431E8E752B2002A1FDB00F036
:104CEC000F0303EB83039D002544D5F8583123B300
:104CFC00002A27DB00F07F0202EB8202930003F50F
:104D0C00A8752544043508B1802825D100232B60D3
:104D1C0002222946204600F04DF800203EE700F024
:104D2C000F0303EB83039D002544AB69002BDFD1FC
:104D3C002046FFF71FFD002030E72046FFF71AFD45
:104D4C0000202BE700F07F0202EB8202930003F1BC
:104D5C00100525440435D6E70146204601F011FA2A
:104D6C0010B101232B60D3E700232B60D0E7204642
:104D7C00FFF700FD002011E700200FE7C8B170B568
:104D8C000D4616460446FFF7CDFC0130400030803E
:104D9C00287003236B70022307E001345A1CD2B233
:104DAC00E9540233DBB20021A95421780029F4D153
:104DBC0070BD704710B513460222C0F89422C3612F
:104DCC0003620A46002101F0F7F9002010BD08B576
:104DDC0013460A46002101F0EFF9002008BD10B57A
:104DEC0013460322C0F89422C0F85C31C0F860313D
:104DFC000A46002101F0E8F9002010BD08B5134661
:104E0C000A46002101F0E0F9002008BD08B5042392
:104E1C00C0F8943200231A46194601F0CDF900204F
:104E2C0008BD08B50523C0F8943200231A4619466C
:104E3C0001F0CAF9002008BD00B585B0002301932C
:104E4C00029303931848194A02604FF480728260EF
:104E5C000122027303754FF40022C26143600223E6
:104E6C000361FBF7D9FBB0B9002301930123029333
:104E7C000223039301A90C48FBF7FCF970B9012339
:104E8C0001930223029301A90748FBF7F3F940B9F8
:104E9C0005B05DF804FB00F03BFDE5E700F038FDE4
:104EAC00EDE700F035FDF3E7C806002000240140D3
:104EBC0010B586B000230293039304930593026804
:104ECC001D4B9A4201D006B010BD044603F56C434D
:104EDC009A6942F400729A619A6902F40072009223
:104EEC00009A9A6942F004029A619B6903F00403E8
:104EFC000193019B03230293039302A90F48FBF731
:104F0C0049FF0F480F4B03600023436083608022EE
:104F1C00C2604FF4807202614FF4806242612022C1
:104F2C008261C361FBF79EFD18B9054B23625C627D
:104F3C00C9E700F0EDFCF8E700240140000801404F
:104F4C00F80600200800024000B583B00A4B5A69ED
:104F5C0042F001025A615B6903F001030193019B6A
:104F6C00002201210B20FBF7F3FC0B20FBF736FD95
:104F7C0003B05DF804FB00BF001002402DE9F043C4
:104F8C0089B0002404940594069407944D4B9A69B7
:104F9C0042F010029A619A6902F010020092009A93
:104FAC009A6942F020029A619A6902F020020192F9
:104FBC00019A9A6942F004029A619A6902F0040219
:104FCC000292029A9A6942F008029A619B6903F074
:104FDC0008030393039B3C4E012210213046FCF73F
:104FEC007BF83A4D012240F604612846FCF774F830
:104FFC0022464FF470412846FCF76EF822464FF4D7
:10500C0080713046FCF768F84FF4604304934FF01E
:10501C000308CDF8148004A92D48FBF7BBFE48F219
:10502C000C230493CDF8148004A93046FBF7B2FE90
:10503C004FF4887304934FF00109CDF81490069443
:10504C000227079704A93046FBF7A4FE40F203138E
:10505C000493CDF8148004A92846FBF79BFE40F678
:10506C0004630493112305930694079704A9284617
:10507C00FBF790FE4FF470430493CDF81490069414
:10508C00079704A92846FBF785FE4FF48063049329
:10509C00104B0593069704A93046FBF77BFE38238B
:1050AC0004930594069404A92846FBF773FE224644
:1050BC0021462820FBF74CFC2820FBF78FFC09B07D
:1050CC00BDE8F0830010024000080140000C0140D4
:1050DC00001001400000311070B505460E46094C19
:1050EC00002210212046FBF7F7FF4FF48053324685
:1050FC0029460548FDF70AFB012210212046FBF743
:10510C00EBFF70BD000801403C07002010B5C24CFD
:10511C0001224FF400412046FBF7DEFF0821204618
:10512C00FBF7C6FF012800F0A781BC4B1B8813F0CE
:10513C00010F0CD0B94A83F0010313809378DBB2D2
:10514C00022B00F0B1810421B548FFF7C5FF1021F7
:10515C00B148FBF7ADFF012800F0AB81AF4B1B88CA
:10516C0013F0100F0CD0AD4A83F01003138093781A
:10517C00DBB2022B00F0B5810421AA48FFF7ACFF8B
:10518C002021A548FBF794FF012800F0AF81A34B29
:10519C001B8813F4807F0CD0A04A83F48073138097
:1051AC009378DBB2022B00F0B98104219E48FFF703
:1051BC0093FF994C00224FF400412046FBF78CFFE3
:1051CC0001224FF480719948FBF786FF0821204695
:1051DC00FBF76EFF012800F0A681904B1B8813F0A3
:1051EC00020F0CD08D4A83F0020313809378DBB24C
:1051FC00022B00F0B08104218D48FFF76DFF1021C8
:10520C008548FBF755FF012800F0AA81834B1B88CA
:10521C0013F0200F0CD0814A83F020031380937875
:10522C00DBB2022B00F0B48104218248FFF754FF5B
:10523C0020217948FBF73CFF012800F0AE81774B29
:10524C001B8813F4806F0CD0744A83F48063138032
:10525C009378DBB2022B00F0B88104217648FFF77B
:10526C003BFF00224FF480717048FBF735FF6A4C0E
:10527C0001224FF480512046FBF72EFF08212046D7
:10528C00FBF716FF012800F0A581644B1B8813F077
:10529C00040F0CD0614A83F0040313809378DBB2C3
:1052AC00022B00F0AF8104216448FFF715FF102199
:1052BC005948FBF7FDFE012800F0A981574B1B88CC
:1052CC0013F4005F0CD0554A83F400531380937889
:1052DC00DBB2022B00F0B38104215948FFF7FCFE2E
:1052EC0020214D48FBF7E4FE012800F0AD814B4B2B
:1052FC001B8813F0400F0CD0484A83F040031380F6
:10530C009378DBB2022B00F0B78104214D48FFF7F4
:10531C00E3FE414C00224FF480512046FBF7DCFEAB
:10532C0001224FF400512046FBF7D6FE08212046FF
:10533C00FBF7BEFE012800F0A481384B1B8813F04C
:10534C00080F0CD0354A83F0080313809378DBB236
:10535C00022B00F0AE8104213B48FFF7BDFE10216B
:10536C002D48FBF7A5FE012800F0A8812B4B1B88CC
:10537C0013F4804F0CD0294A83F480431380937824
:10538C00DBB2022B00F0B28104213048FFF7A4FEFF
:10539C0020212148FBF78CFE012800F0AC811F4B2B
:1053AC001B8813F0800F0CD01C4A83F080031380F1
:1053BC009378DBB2022B00F0E88104212448FFF73C
:1053CC008BFE154C00224FF400512046FBF784FE57
:1053DC0001224FF480412046FBF77EFE0821204637
:1053EC00FBF766FE012800F0D5810C4B1B8813F4EB
:1053FC00805F0CD0094A83F4805313809378DBB21E
:10540C00022B00F0DF8104211248FFF765FE10210A
:10541C000148FBF74DFE1FE0000C014098020020F4
:10542C00600100206801002070010020000801408C
:10543C0078010020800100208801002090010020CC
:10544C0098010020A0010020A8010020B00100203C
:10545C00B8010020C0010020012800F0B881AF4B3A
:10546C001B8813F4004F40F0CA8100224FF4804196
:10547C00AB48FBF731FE10BDA84B1B8813F0010F96
:10548C007FF465AEA54A83F0010313809378DBB2F9
:10549C00022B04D00421A348FFF71EFE57E604217B
:1054AC00A04800F031FFF5E704219F4800F02CFFE5
:1054BC0049E69A4B1B8813F0100F7FF461AE974AA4
:1054CC0083F0100313809378DBB2022B04D00421F9
:1054DC009648FFF701FE53E60421944800F014FFB0
:1054EC00F5E70421924800F00FFF45E68B4B1B8833
:1054FC0013F4807F7FF45DAE884A83F4807313804D
:10550C009378DBB2022B04D004218A48FFF7E4FD28
:10551C004FE60421874800F0F7FEF5E704218648A2
:10552C0000F0F2FE41E67D4B1B8813F0020F7FF476
:10553C0066AE7A4A83F0020313809378DBB2022BB7
:10554C0004D004217D48FFF7C7FD58E604217B48B1
:10555C0000F0DAFEF5E70421794800F0D5FE4AE6C2
:10556C006E4B1B8813F0200F7FF462AE6B4A83F0F6
:10557C00200313809378DBB2022B04D004217148F2
:10558C00FFF7AAFD54E604216E4800F0BDFEF5E7D6
:10559C0004216D4800F0B8FE46E6604B1B8813F4FE
:1055AC00806F7FF45EAE5D4A83F4806313809378E2
:1055BC00DBB2022B04D004216448FFF78DFD50E6CA
:1055CC000421624800F0A0FEF5E70421604800F0D9
:1055DC009BFE42E6514B1B8813F0040F7FF467AE21
:1055EC004E4A83F0040313809378DBB2022B04D071
:1055FC0004215848FFF770FD59E60421554800F086
:10560C0083FEF5E70421544800F07EFE4BE6434B45
:10561C001B8813F4005F7FF463AE404A83F400539D
:10562C0013809378DBB2022B04D004214B48FFF794
:10563C0053FD55E60421494800F066FEF5E70421C8
:10564C00474800F061FE47E6344B1B8813F0400FCF
:10565C007FF45FAE314A83F0400313809378DBB262
:10566C00022B04D004213F48FFF736FD51E60421FC
:10567C003C4800F049FEF5E704213B4800F044FEAD
:10568C0043E6264B1B8813F0080F7FF468AE234AC1
:10569C0083F0080313809378DBB2022B04D004212F
:1056AC003248FFF719FD5AE60421304800F02CFE71
:1056BC00F5E704212E4800F027FE4CE6174B1B881B
:1056CC0013F4804F7FF464AE144A83F48043138048
:1056DC009378DBB2022B04D004212648FFF7FCFCA4
:1056EC0056E60421234800F00FFEF5E7042122487A
:1056FC0000F00AFE48E6094B1B8813F0800F7FF47C
:10570C0060AE064A83F0800313809378DBB2022BE1
:10571C0036D004211948FFF7DFFC52E6980200202E
:10572C00000C01405C01002060010020640100209D
:10573C00680100206C010020700100207401002021
:10574C00780100207C0100208001002084010020D1
:10575C00880100208C010020900100209401002081
:10576C00980100209C010020A0010020A401002031
:10577C00A8010020AC010020B0010020B4010020E1
:10578C000421284800F0C0FDC3E70421264800F09E
:10579C00BBFD12E6254B1B8813F4805F7FF437AEFC
:1057AC00224A83F4805313809378DBB2022B04D00B
:1057BC0004211F48FFF790FC29E604211C4800F047
:1057CC00A3FDF5E704211B4800F09EFD1BE6174BDB
:1057DC001B8813F4004F7FF448AE144A83F4004343
:1057EC0013809378DBB2022B04D004211248FFF70C
:1057FC0073FC3AE60421104800F086FDF5E70B4AED
:10580C0083F4004313809378DBB2022B04D0042181
:10581C000A48FFF761FC28E60421084800F074FDF3
:10582C00F5E700BFB4010020B80100209802002069
:10583C00BC010020C0010020C4010020C8010020D0
:10584C0070B584B0002204AC44F8042D2B4E10210A
:10585C003046FBF741FC2A4D4FF480530093042350
:10586C00EA1821462748FDF72BF801221021304673
:10587C00FBF732FC6B7903F0F003902B01D004B0F2
:10588C0070BDAB7913F0010F24D001224FF480616D
:10589C001D48FBF721FC1A4B9B7913F0020F20D00B
:1058AC00012204211848FBF717FC154B9B7913F0C8
:1058BC00040F1CD001224FF400611348FBF70CFCC1
:1058CC000F4B9B7913F0080FD9D004210F48FFF729
:1058DC0003FCD4E700224FF480610B48FBF7FCFB80
:1058EC00D9E7002204210848FBF7F6FBDDE700228C
:1058FC004FF400610448FBF7EFFBE1E700080140BF
:10590C00980200203C070020000C0140CC01002034
:10591C00FEE700B595B000230C930D930F931093F5
:10592C0005930693079308930993019302930393AA
:10593C00049301220A924FF480330B930E920222AD
:10594C00119212934FF4201313930AA8FCF772F8D8
:10595C00E8B90F23059302230693002307934FF412
:10596C00806208920993012105A8FCF741FB80B9DC
:10597C00122301934FF4804303934FF48003049359
:10598C0001A8FCF75DFC30B915B05DF804FBFFF71E
:10599C00BFFFFFF7BDFFFFF7BBFF000008B5FAF72D
:1059AC00F3FBFFF7B6FFFFF7E9FAFFF7CDFAFFF7C6
:1059BC0043FA00F065F800F0FBF900F031FA254BE2
:1059CC004FF48072C3F88420BFF34F8FBFF36F8FF7
:1059DC00214C2046FAF718FFC82220492046FAF736
:1059EC0051FD1F48FDF7BCF804211E48FDF748FD8A
:1059FC004FF480611C48FBF75BFBA8B91B4B0022E2
:105A0C009A7004211A48FFF767FB124B4FF480720F
:105A1C005A60FFF77BFB1920FAF7DAFBFFF710FF50
:105A2C001920FAF7D5FBF4E7104C0123A3700022E0
:105A3C004FF400710F48FBF74FFB00F07BFA4FF46B
:105A4C007A70FAF7C5FB0223A37004210A48FFF70A
:105A5C0043FBDAE700E100E0C8060020A0020020CA
:105A6C00D407002094070020000801409802002071
:105A7C00D0010020000C0140D40100207047000030
:105A8C0008B50F480F4B03604FF48273436000233B
:105A9C008360C36002220261012242614FF40072F2
:105AAC0082612022C2610362436283620A23C36261
:105ABC00FCF76AFD00B908BDFFF72AFFFBE700BF42
:105ACC003C0700200030014010B586B00023029343
